:400000000040002011000000850500008505000010B500F0D7FAC04610B51222284B1A60302000F0FDFB274A274B1A60274A284B1A60284B2849196028490A6028491960B4
:4000400028490A602849196028490A60284A1A60BC218901274A1160274A1A60C022920026490A602649196026490A60264A1A6080221206254B1A608022D202244B1A60C5
:400080004422244B1A600132234B1A60023A234B1A600332224B1A60043A224B1A60023A214B1A600132214B1A602149072000F013FB072000F004FB00221E4B1A6010BDBF
:4000C000300010400600008004010B40009F0F00100301400000014044FF00801403014045FF00800C03014043FF00801803014046FF00800803014042FF00800003014004
:4001000040FF00800403014041FF008008010B4000010B405801014054010140500101404C01014034010140300101402C010140750900000C020B4010B572B60122314B4F
:400140001A7000240FE030486200131959000B00411889881A5AC31858880004104300F00BFA0134E4B2012CEDD927490C312748383000F0D7F9264A264B1A60EE22120212
:40018000254B1A6099231B04244A1360244A13602449254A1160254A1360254A1360254A254B1A600F23254A1360254A136025490B783C22934314221343DBB20B70224A33
:4001C000117816230B43DBB2137078221F4B1A601F4A204B1A60AA2292011F4B1A601E221E4B1A601E4A1F4B1A601F4A1F4B1A60D82212011E4B1A60FFF70EFF00F0ACF98C
:4002000010BDC0461C700F40741E0000741F000030330300000102400003024000500F4010500F400000930318500F4020500F4030500F40A0000F006001204020001040F4
:4002400000800F4001700F4000700F400000044009240900080004400C00044000010440B06D000008010440B66D1B00080204400803044010B5064C2378002B07D1054B8B
:40028000002B02D0044800E000BF0123237010BD6801002000000000581E0000084B10B5002B03D00749084800E000BF07480368002B00D110BD064B002BFBD09847F9E7F5
:4002C000000000006C010020581E0000C00000200000000070B50500012000F00FFD0F4B1B780F4C2A000F49200001F091F90021002000F05FFD200000F0F2FC0A4B1A78FD
:4003000014340A49200001F083F90021012000F051FD200000F0E4FC70BDC046AC010020840100205C1E0000AB010020681E000010B50B4B1B78012B08D0002B02D0022BD8
:4003400009D00CE00748FFF7C5FF08E005480830FFF7C0FF03E003481030FFF7BBFF10BDAA010020C400002010B5074A13780133DBB213701378082B02D10022024B1A7084
:40038000012000F0CFFB10BDA901002010B5044A537859424B41DBB2537000F051FB10BDA901002010B50222024B5A7000F052FB10BDC046A901002010B5064B9B78DBB213
:4003C000092B04DD034A93780A3BDBB2937000F02DFB10BDA901002010B5064B9B78DBB2BE2B04DC034A93780A33DBB2937000F013FB10BDA901002010B500F083FB00F0B0
:400400009BFE084800F0BCFB074800F093FD074800F0C2FD064800F0F1FD064800F01EFE10BDC046690300008D030000A5030000B9030000D903000010B500F049FD0020AF
:4004400000F0D6FC10BDC04670B500F0D9FCC4B2FF23184001F038F8051C0A4900F070FF002807D1FE218905281C00F055FF002803D001E00A2400E00124200000F0B8FC11
:40048000200070BD0000204110B5154B9B78002B03D1134B5B78002B21D0114CA3780A2040425843FA23DB009C46604400F0E4FA6378DBB2012B02D0022B09D00FE0084B51
:4004C0001A7808239B1A074AD05C00F045FE06E0034B1B78DBB2034AD05C00F03DFE10BDA9010020DC00002010B5FFF7ADFF8300C0184300D8B2034BD87000F0CDFDFFF77A
:40050000C3FF10BDA901002010B562B6FFF774FF00F040FCFFF790FFFFF70AFFFFF7E4FFFAE7C046F0B50025002711E0BB00C658F3B2FF22964308E06A008A181478A41915
:40054000527822700135013BDBB2002BF4D10137072FEBD9F0BDC0460323044A1360044A13600022034B1A607047C0463000304030003140000E3F4010B50A00002101F04D
:400580003EF810BD10B501F005F803680C2B00D1FEE7FEE710B50300084A1068C318084A9A1A802A02DC054A136005E000F0F2FF0C2303600120404210BDC046E4000020B9
:4005C000F001002070B50F4E0F4D13E029686B68AC68002202E001C901C30432A242FAD1E868002202E0002102C304328242FAD11035013E002EE9D100F0D2FFFFF784FF85
:40060000FEE7C046010000005420000010B50E4A136801218B43136000230AE0032B03D89A000A49505800E009489900094A885001332F2BF2D9FFF77FFD034A116801230A
:400640000B43136010BDC0460000104000000000850500000000002000230AE00D4A12683F210A400C49C95C8A4201D1033303E001332D2BF2D9032308490868084A024061
:400680000A60084A944663441B78DBB2064A13607047C0462CFF0B40CC1F000000002240FFFFFFBFCDF1FF0F28FF0B40034B18688023DB05184000D00120704700002240ED
:4006C0001F2318401E3B8340014A13607047C04600E100E001BE704770B504000D001F2802D90020FFF7F6FF1034A40080239B059C4664442068256070BDC04610B5040071
:4007000006E0084B586800F02FFD074B9C46644480231B029C42F4D8024B9868604300F023FD10BDE80000200080FFFF70B582B000F0CAF800285DD000F01FFD0500002379
:400740000AE02D4A12683F210A402C49C95C8A4201D1033303E001332D2BF2D903230021274A1160274A1268D20606D1254802681F318A4313390A430260234C2168234A35
:400780001140234A5A438023DB019C466244D20B013A5205520D0B001343A0225203134323601C4B1B680193302000F0EDFC1A4A13688021C9050B4313602668174B1E40B4
:4007C000002407E00120FFF799FF1034A30533430D4A1360EE2CF5D90120FFF78FFFFF239B051E43084B1E60019A0A4B1A60280000F0C7FC02B070BD2CFF0B40CC1F00000D
:4008000028FF0B4034FF0B400800224000F800C040420F003000104000002240FFFF3FC030B587B0040000F0A8FC0500FFF73EFF002803D0FFF710FF012100E00021104BCC
:400840001B6800930F4B1B680193033C0E4B1B5D02930E4B1B68039304AA0D4B04936B4605930C4B1A600C480C4A10601B68012901D1FFF75BFF280000F083FC07B030BDFF
:4008800008010B4000010B40CC1F000030001040B6EA000008001040170000800400104010B5034B1B7B584300F05EFC10BDC046E8000020034B1868C0231B02184000D0EB
:4008C0000120704700010B40034B1B68002B01DA012000E0002070470000224010B500F04CFC044A1368C02109020B43136000F048FC10BD00010B4010B500F03EFC0849C3
:400900000A68084B1A408024E40122430A600A6813408022120213430B6000F032FC10BD00010B40FF3FFFFF70B5050000F025FC0400FFF7BFFF002803D0FFF7DDFF0121AF
:4009400000E0002108482840084A1568084B2B40184310601368012901D1FFF7BFFF200000F00FFC70BDC0460404040010020B40FBFBFBFF10B5244B1B685B0715D5234B23
:400980005B685B070ED5224B596A042001401F4C62688A4362605A6A82435A629B69002B00D098470420FFF7BFFF174B1B685B0518D5164B5B685B0510D5154B596A80227B
:4009C000D2001140114842688A434260596A114A0A405A62DB69002B00D098478020C000FFF7A2FF084B1B685B030CD5074B5B685B0304D5064B1B6A002B00D09847802078
:400A0000C002FFF791FF10BD10020B40FC000020B0010020FFFBFFFF034A1068082318401060C008C0B2704710000440034A10681023184010600009C0B27047100004401C
:400A4000034A10684023184010608009C0B2704710000440034A10682023184010604009C0B27047100004400004000C014B18607047C046880120400004000C014B18609C
:400A80007047C0469401204070B504000D0000F074FBAC40024B1C6000F073FB70BDC0460800204010B500F068FB064A116804230B43136000F065FB18210420FFF7E4FFF2
:400AC00010BDC04600002040014B18607047C046B801204010B580229204084B1A600C22074B1A600120FFF7EFFF9620C000FFF7C3FF0020FFF7B8FF10BDC04680012040B1
:400B0000A401204010B5064B1B78002B04D1FFF7E1FF0122024B1A70FFF7C4FF10BDC046D8010020014B18607047C046B00120409423014AD05070470000002010B504005E
:400B400000F01BFB044A1168044B0B40A4031C43146000F016FB10BD14E400E0FF3FFFFF80229203014B1A607047C04600E100E080229203014B1A607047C04680E100E03C
:400B800010B50400FFF7F4FF2000FFF7D1FF0320FFF7D4FFFFF7E4FF10BDC04610B50B4C226860239A4322602268513B9A432260226810230343D8B2104320600120FFF791
:400BC0006FFE236810229343236010BD0002044070B505000E4C226820231343236023684022934323600020FFF75AFE23680F2293432360226810232B43D8B210432060E4
:400C00000120FFF74DFE236810229343236070BD00020440F8B5274A13687F218B43136025490B681B0B1B03244803430B60136820218B431360116840230B431360CA2782
:400C40007F000020FFF72CFE1A4C23681026334323600120FFF724FE194B1D682368B34323600020FFF71CFE08231D402368334323600120FFF714FE2368B3432360002DD9
:400C800002D10A20FFF70CFE013F002D01D0002FD7D1084B1A6840218A431A601A683F318A431A60044A13681B0B1B0305490B431360F8BD000204400802044049020000BC
:400CC00004020440B60D000010B50400FFF7A2FF2009FFF77DFF0F202040FFF779FF10BD70B505000078012404E0FFF7EDFF285D0134E4B20028F8D170BDC04610B5040058
:400D0000FFF788FF2009FFF749FF0F202040FFF745FF10BD10B52820FFF7F0FC0320FFF73DFF0520FFF7EAFC0320FFF737FF0F20FFF7E4FC0320FFF731FF0120FFF7DEFC66
:400D40000220FFF72BFF0520FFF7D8FC0620FFF7D5FF0E20FFF7D2FF2C20FFF7CFFF0820FFF7CCFF0120FFF7C9FF0C20FFF7C6FF0320FFF7C3FF0520FFF7C0FC10BDC04619
:400D800010B50C20FFF7BAFF0122014B1A7010BDD901002010B5064B5B78002B04D1FFF7B9FF0122024B5A70FFF7EAFF10BDC046D901002010B501280BD0002804D0022867
:400DC0000CD003280FD012E08039C8B2FFF796FF0DE04039C8B2FFF791FF08E06C39C8B2FFF78CFF03E02C39C8B2FFF787FF10BD0004000C014B18607047C046480120402A
:400E0000024B18680004000C7047C0464801204010B5040000F0B1F9054B1968054A0A401A601A6814431C6000F0ABF910BDC04640012040FFFFFCFF0004000C014B1860FE
:400E40007047C0465401204070B504000D0000F094F9AC40024B1C6000F093F970BDC0460800204010B500F088F9064A116802230B43136000F085F908210220FFF7E4FF0A
:400E800010BDC04600002040014B18607047C0467801204010B5C42292040B4B1A60C32292000A4B1A600120FFF7EEFF80204002FFF7AEFF802424022000FFF7BDFF200009
:400EC000FFF796FF10BDC046400120406401204010B5064B1B78002B04D1FFF7DBFF0122024B1A70FFF7BEFF10BDC046DB010020014B18647047C0460000002010B50400CB
:400F000000F03BF9044A1368C0218B43A4011C43146000F036F910BD00E400E00122014B1A60704700E100E00122014B1A60704780E100E010B50400FFF7F6FF2000FFF7E1
:400F4000D7FF0320FFF7DAFFFFF7E8FF10BDC046014B58647047C0460000002010B5040000F00BF9044A1168044B0B40A4031C43146000F006F910BD00E400E0FF3FFFFFC0
:400F80000222014B1A60704700E100E00222014B1A60704780E100E010B50400FFF7F6FF2000FFF7D5FF0320FFF7D8FFFFF7E8FF10BDC046014B98647047C046000000208A
:400FC00010B5040000F0D9F8044A1168044B0B40A4051C43146000F0D4F810BD00E400E0FFFF3FFF0422014B1A60704700E100E00422014B1A60704780E100E010B50400F0
:40100000FFF7F6FF2000FFF7D5FF0320FFF7D8FFFFF7E8FF10BDC046014BD8647047C0460000002010B5040000F0A7F8044A13689B009B08A4071C43146000F0A2F810BDA2
:4010400000E400E00822014B1A60704700E100E00822014B1A60704780E100E010B50400FFF7F6FF2000FFF7D7FF0320FFF7DAFFFFF7E8FF10BDC0460004000C014B186046
:401080007047C046080120400004000C014B18607047C046140120400004000C014B18607047C0460C01204070B504000D0000F064F8AC40024B1C6000F063F870BDC04651
:4010C0000800204010B500F058F8064A116801230B43136000F055F818210120FFF7E4FF10BDC04600002040014B18607047C0463801204010B50D4C8023DB04236023686A
:4011000023600020FFF7B8FF236823600C22084B1A600120FFF7E8FF3122064B1A606420FFF7B2FF6420FFF7B7FF10BD00012040240120402801204010B5064B1B78002BCF
:4011400004D1FFF7D7FF0122024B1A70FFF7BAFF10BDC046DC010020014B18707047C04672000F40000000000230800803D00138FDD1C046C046C0467047EFF3108072B60C
:40118000704780F31088704770B50400FFF7F5FF0500102C05D8104A136803218B43136016E0202C07D80C490B6803229343023A13430B600CE0302C07D807490B6803225B
:4011C0009343013A13430B6002E00020FFF782FA2800FFF7D6FF70BD30001040002243088B4274D303098B425FD3030A8B4244D3030B8B4228D3030C8B420DD3FF220902CE
:4012000012BA030C8B4202D31212090265D0030B8B4219D300E0090AC30B8B4201D3CB03C01A5241830B8B4201D38B03C01A5241430B8B4201D34B03C01A5241030B8B42BA
:4012400001D30B03C01A5241C30A8B4201D3CB02C01A5241830A8B4201D38B02C01A5241430A8B4201D34B02C01A5241030A8B4201D30B02C01A5241CDD2C3098B4201D373
:40128000CB01C01A524183098B4201D38B01C01A524143098B4201D34B01C01A524103098B4201D30B01C01A5241C3088B4201D3CB00C01A524183088B4201D38B00C01ACE
:4012C000524143088B4201D34B00C01A5241411A00D20146524110467047FFE701B5002000F006F802BDC0460029F7D076E770477047C0468446081C6146FFE71FB500F034
:401300009FF8002801D40021C8421FBD10B500F02BF84042013010BD10B500F091F8002801DB002010BD012010BDC04610B500F087F8002801DD002010BD012010BDC0467C
:4013400010B500F039F8002801DC002010BD012010BDC04610B500F02FF8002801DA002010BD012010BDC046430270B542004C005D0AC30F4802120E460A240EC90FFF2AC3
:401380000FD0FF2C11D00120A24200D070BDB542FCD18B420DD0002AF8D12800431E9841F4E70120002DF1D1EBE70120002EEDD1E9E70020EAE7C0464302F0B542005D0A59
:4013C000C30F4802440A4800120E000EC90FFF2A1FD0FF2822D0002A09D16E426E4100280FD1002C0DD10020002D09D005E0002801D1002C01D08B4213D0584201231843C4
:40140000F0BD002EF7D048424141012049420843F6E7002DDDD002204042F1E7002CDAD0F9E78242E9DC04DBA542E6D80020A542E6D25842434101205B421843E0E7C0464E
:401440004302F0B542004C005E0AC30F4802120E450A240EC90FFF2A17D0FF2C19D0002A0BD170427041002C17D0002807D048424141012049420843F0BD002C13D08B42CC
:4014800014D0584201231843F6E70220002EF3D1E3E70220002DEFD1E1E7002DE5D10020002EE9D0EDE7002DE9D1EAE7A242E8DC04DBAE42E5D80020AE42DDD25842434116
:4014C00001205B421843D7E770B5002830D0C317C5185D40C40F280000F03EF89E231B1A962B0DDC9622D21A95406A02520AD8B25202C005520AE40702432243100070BDA1
:40150000992B19DC9922D21A9540124A2A40690704D00F210D40042D00D00432510103D50C4B1A409F231B1A9201520AD8B2DFE7002400200022DBE705222E00121AB92124
:40154000D6402A00C91A8A40551EAA4135001543DBE7C046FFFFFFFB1C2101231B04984201D3000C10391B0A984201D3000A08391B09984201D30009043902A2105C4018B2
:401580007047C04604030202010101010000000000000000014B18687047C046640100200E4B70B500251E000D4CE41AA410A54204D0AB00F35898470135F8E700F038FDBB
:4015C000084B00251E00084CE41AA410A54204D0AB00F35898470135F8E770BD3C2000003C2000003C20000044200000002310B59A4203D0CC5CC4540133F9E710BD03004A
:401600008218934202D019700133FAE7704700000EB410B59DB002A9029008610B48822488604861012040421FABC881084804CBA400006801938C8100F06EF80023029A79
:4016400013701DB010BC08BC03B01847FFFFFF7F64010020F0B58E6885B007000C00039201939E4243D890238A89DB001A423ED003250969236801985B1A029363695D4331
:40168000EB0F5D19029B6D1001331B18AB4200D91D00530510D52900380000F037FB061E14D0029A2169FFF7A1FFA289194B134080221343A38112E02A00380000F086FB0F
:4016C000061E0CD12169380000F0D4FA0C23402201203B60A38940421343A38117E0029B2661F61826606561019EED1AA560019BB34200D21E0032000399206800F0A5FA6E
:401700000020A3689B1BA36023689E19266005B0F0BDC0467FFBFFFFF0B59FB0029005938B890F0016001B0610D50B69002B0DD1402100F0EBFA38603861002804D10C23B0
:40174000029A01381360D8E040237B61002306AD6B6120336B761033AB7634002378002B03D1A31B049312D003E0252BF9D00134F4E7A31B320039000298FFF76BFF431C5D
:4017800000D1B4E06A69049B944663446B612378002B00D1ABE00122002352426A6002A95432521801342B60EB60AB601370AB65534E21780522300000F03CFA002807D045
:4017C0000123801B83402A68013413432B60EFE72B68DA0604D55322202102A8121811701A0704D553222B2102A81218117022782A2A03D0099B00200A210EE0059A111D17
:4018000012680591002A01DB099204E05242EA60022213432B6001340BE02278303A092A04D84B4301349B180120F6E7002800D0099323782E2B1ED163782A2B0AD1059B67
:4018400002341A1D1B680592002B01DA01235B42079310E000230A201A0001346B6021783039092904D84243013452180123F6E7002B00D00792234E21780322300000F011
:40188000D9F9002806D04023801B83402A68013413432B60217806221B48661C297600F0C9F9002812D0194B002B06D10722059B073393430833059314E005AB00933A006B
:4018C000134B2900029800E000BF07E005AB00933A000F4B2900029800F08AF80390039B013304D06B69039A9B186B6135E7BB890B985B0601D5012040421FB0F0BDC046AD
:40190000FC1F000002200000062000000000000055160000F7B5170001938A680B6900900C00934200DA130022003B6043321278002A01D001333B6023689B0602D53B6892
:4019400002333B60062523681D401ED0230043331B785A1E9341226892061CD53020E1184331087021005A1C45310978A2184332023311700FE022000123193201990098B1
:40198000089EB047431C0ED00135E3683A689B1A9D42F0DBDAE72200019943320098089DA847431C02D10120404220E006232068E1683A6803400025042B03D18D1AEB43FC
:4019C000DB171D40A3682269934201DD9B1AED180027BD420AD0220001231A3201990098089EB047431CDED00137F2E70020FEBDF0B58BB006920A0043320793059004927F
:401A00000A7E0C00109B6E2A00D1ABE011D8632A22D009D8002A00D1B5E0582A00D0C5E045310A70814A4FE0642A1DD0692A1BD0BCE0732A00D1AAE009D86F2A29D0702A1F
:401A400000D0B3E0202209680A43226037E0752A1FD0782A33D0A9E00E001A684236111D196013683370A4E021681A68080606D4490604D5111D19600023D55E02E0111D35
:401A800019601568002D3BDA2D23049A6D42137036E021681A68080606D4490604D51568111D1960ADB202E0111D196015685F4B227E039308276F2A1DD00A271BE0220031
:401AC0007821453211705A4A19680392081D226818600D68100602D4500600D5ADB2D30702D520231A4322601027002D03D1202322689A4322602300002243331A7002E02B
:401B00000A274A4B03936368A360002B09DB0422216891432160002D05D1049E002B11D07BE0002D79D0049E28003900FFF7DCFB039B013E5B5C280033703900FFF74EFB3F
:401B4000051EF1D1082F09D12368DB0706D563682269934202DC3023013E3370049B9B1B23612BE009681A68080607D4490605D5111D19601368A28A1A8004E0111D19608D
:401B8000136862691A600023049E236116E01A68111D1960166800216268300000F04AF8002801D0801B6060636803E0260042363270012323610023049A1370079B09AAAF
:401BC00000932100069B0598FFF7A4FE431C02D10120404227E02369320006990598079DA847431CF4D0236800259B070FD4099BE068984217DA180015E022000123193245
:401C000006990598079EB047431CE1D00135E368099A9B1A9D42F0DBE9E72600039B42361B7833708EE70BB0F0BDC0460D2000001E200000C9B28218904204D003788B42A6
:401C400002D00130F8E70020704710B5884202D98B18984201D3002305E09B1A013A08D3995C8154FAE7934203D0CC5CC4540133F9E710BD70B50500002944D00C1F23688C
:401C8000002B00DAE418280000F0D8F81E4A13681100002B02D16360146031E0A3420DD92268A018834203D118685B688218226063600C6024E0A24203D813005A68002A0B
:401CC000F9D11E689819A0420BD12168711858181960824214D110685268411819605A600EE0A04202D90C232B6009E021686018824203D1106852684118216062605C6052
:401D0000280000F09CF870BDE4010020032370B5CD1C9D43083506000C2D01D20C2501E0002D01DBA94202D90C23336048E0300000F084F8234B1C681A002100002913D0C2
:401D40000B685B1B0DD40B2B02D90B60CC181EE08C4202D1636813601AE04B6863600C0016E00C004968E9E7174C2368002B03D1300000F051F820602900300000F04CF8FA
:401D8000431C18D00323C41C9C43A0420DD12560300000F054F8200007220B30231D9043C31A0ED05A42E2500BE0211A300000F033F8431CEBD10C233000336000F03FF881
:401DC000002070BDE4010020E0010020F8B506000C001500002904D11100FFF797FF040018E0002A03D1FFF745FF2C0012E000F027F885420ED929003000FFF787FF071E18
:401E000007D021002A00FFF7F1FB21003000FFF731FF3C002000F8BD002370B5064C050008002360FEF7B6FB431C03D12368002B00D02B6070BDC046E80100207047704758
:401E40000B1F1A68101F002A04DA891804390B68D0180438704700000000000025732050574D3D256420760053706565643D25640000000000300F40000400400F4000047E
:401E80001301150117022F0431023304370159045F018E04920194019602970199019B02A704B002B204B304B401B502B701D804D904DC32DF0105400E601E64214A268051
:401EC000272829802F10310A372881408201868087088A04C080C230CA48CC63E62002021101130217081A071B01220127082A042B0430013101320433083402350237047F
:401F00003E153F04580459045B045C105F0107400E08151017011E401F242508262127022C202F08362437026C206D106F41870489088B208E44A308A601ADC0AF10C01099
:401F4000C240C450CA60CCE0E280E66003400402052008400B100F4068206E20730177028303852086108820C0B0C270DAC0DC60E280E440E69043404C01501057205B20AB
:401F8000670887208B248C1090029B40AC40AF50D010D220D4E0D880E610E810EC5019088D08C608E202010F100F00001B300F4014310F4018320F401F330F4015400F40BD
:401FC00014410F4004430F4002600F40030405060708090A0B0C0E0F101112131415161718191B1C1D1E1F2021222325262728292A2B2E2F3031323334354300232D302B18
:402000002000686C4C00656667454647003031323334353637383941424344454600303132333435363738396162636465660000F8B5C046F8BC08BC9E4670479D020000F3
:402040000D060000F8B5C046F8BC08BC9E4670477502000068200000C0000020A800000088000000000000000000000053746F7000000000466F7277617264004261636B8C
:4020800000000000030206040C080901F0010020010000000000C05D80BB000030000000006CDC02F000000004040400000000000000000000000000000000000000000013
:4020C000000000000000000000000000FA1F0000000000000000000000000000000000000000000000000000000000000000000000000000000000000000000000000000C7
:40210000000000000000000000000000040100200000000000000000000000000000000000000000000000000000000000000000000000000000000000000000000000007A
:40214000000000000000000000000000000000000000000000000000000000000000000000000000000000000000000000000000000000000000000000000000000000005F
:40218000000000000000000000000000000000000000000000000000000000000000000000000000000000000000000000000000000000000000000000000000000000001F
:4021C00000000000000000000000000000000000000000000000000000000000000000000000000000000000000000000000000000000000000000000000000000000000DF
:40220000000000000000000000000000000000000000000000000000000000000000000000000000000000000000000000000000000000000000000000000000000000009E
:020000040001F9
:0200000490303A
:02000000E7D047
:0200000490402A
:4000000000000000000000000000000000000000000000000000000000000000000000000000000000000000000000000000000000000000000000000000000000000000C0
:400040000000000000000000000000000000000000000000000000000000000000000000000000000000000000000000000000000000000000000000000000000000000080
:0200000490501A
:0C0000000002112D11A100011137F9714F
:0200000490600A
:0100000001FE
:00000001FF